:020000040800F2
:1000000010080020290200080D130008291200081A
:10001000091300087D030008951A0008000000007D
:100020000000000000000000000000007D13000838
:1000300005040008000000003D130008B11300088B
:10004000430200084302000843020008430200087C
:10005000430200084302000843020008430200086C
:10006000430200084302000843020008430200085C
:10007000430200084302000843020008810300080D
:10008000430200084302000843020008430200083C
:10009000430200084302000843020008430200082C
:1000A000430200084302000843020008430200081C
:1000B000430200084302000843020008430200080C
:1000C00043020008430200084302000843020008FC
:1000D00043020008430200084302000843020008EC
:1000E00043020008430200084302000843020008DC
:1000F00043020008430200084302000843020008CC
:1001000000000000000000000000000043020008A2
:1001100043020008430200084302000843020008AB
:10012000430200084302000843020008430200089B
:100130004302000843020008000000000000000025
:1001400043020008430200084302000800000000C8
:10015000000000000000000000000000000000009F
:1001600000000000000000004302000843020008F5
:100170004302000800000000000000000000000032
:10018000000000004302000800F002F800F03CF814
:100190000AA090E8000C82448344AAF10107DA45E2
:1001A00001D100F031F8AFF2090EBAE80F0013F0F8
:1001B000010F18BFFB1A43F001031847B8190000DC
:1001C000D8190000103A24BF78C878C1FAD852076D
:1001D00024BF30C830C144BF04680C6070470000C1
:1001E0000023002400250026103A28BF78C1FBD840
:1001F000520728BF30C148BF0B6070471FB501F0E0
:10020000A0FC1FBD10B510BD00F058F81146FFF757
:10021000F5FF01F07BFC00F076F803B4FFF7F2FF86
:1002200003BC00F07DF800000948804709480047FA
:10023000FEE7FEE7FEE7FEE7FEE7FEE7FEE7FEE796
:10024000FEE7FEE704480549054A064B70470000F3
:100250002114000889010008100200201008002065
:1002600010040020100400204FF0000200B51346D7
:1002700094469646203922BFA0E80C50A0E80C50C6
:10028000B1F12001BFF4F7AF090728BFA0E80C5077
:1002900048BF0CC05DF804EB890028BF40F8042B70
:1002A00008BF704748BF20F8022B11F0804F18BFDD
:1002B00000F8012B7047704770477047754600F093
:1002C0002BF8AE4605006946534620F007008546E8
:1002D00018B020B5FFF7B6FFBDE820404FF000068C
:1002E0004FF000074FF000084FF0000BAC46ACE8B1
:1002F000C009ACE8C009ACE8C009ACE8C00921F00D
:1003000007018D46704710B50446AFF300802046C4
:10031000BDE81040FFF781BF004870471000002083
:1003200001491820ABBEFEE726000200704700001E
:1003300010B540F60004C4F6000420464FF40071E6
:10034000012200F001FA20464FF48071012200F0F2
:10035000FBF94FF4FA7000F013F920464FF40071E6
:10036000002200F0F1F920464FF48071002200F0E5
:10037000EBF94FF4FA7000F003F910BDFEE700004E
:1003800080B540F23C10C2F2000000F043F880BD9E
:1003900040F2000C0168C4F2020C4FF6F8320CF582
:1003A0008163CBF6FD72994238BF02F58062114439
:1003B0004CF6CD42CCF6CC42A1FB02126FF0030307
:1003C0000CF5806103EA92023CBF0021C4F20201F5
:1003D000C0E90F1270470000B0B5D0E900CED0E9F7
:1003E0000F40012505FA00F060600846CCF80430A3
:1003F000BEF1100F04BF10460A46CCF80800CCF836
:100400000C20B0BD70470000EFF3108072B600BF43
:10041000FEE70000B0B50268D0E90FCEDCF80010AE
:1004200013685C0712D5042404FA0EF414EA0105DB
:100430000CD01168890603D4116821F00401116001
:10044000CCF80440C16AA9B38847B0BD9C0718D551
:10045000022404FA0EF414EA010512D01168890688
:1004600006D4116821F00A011160012180F82110E1
:10047000CCF80440816A002280F82020D1B188475E
:10048000B0BD1B0758BFB0BD082303FA0EF31940D7
:1004900010D0116821F00E011160012101FA0EF255
:1004A000CCF804208163016B4FF480720029028430
:1004B00018BF8847B0BD0000002804BF0120704766
:1004C0002DE9F0410446022084F82100D4E9000817
:1004D00004F1080E9EE80C50D4E90656076843F66E
:1004E000F07127EA010141EA08011143194341EA89
:1004F0000C0141EA0E012943314301602046FFF718
:1005000047FF00204FF48071A0632184BDE8F08193
:1005100010B5044690F82000012821D094F821005D
:100520004FF0010C012884F820C016D1022084F875
:1005300021000020A063D4F800C0DCF8000020F007
:100540000100CCF800002046FFF746FF2068E26A71
:1005500001683AB141F00E010AE0002084F8200061
:10056000022010BD41F00A010160016821F0040180
:100570000160016841F001010160002010BD000030
:10058000B0B5044600F0E6F8054640F20400C2F2B9
:1005900000000078611C18BF044400BF00F0DAF8C6
:1005A000401BA042FAD3B0BD2DE9F04F83B00D68D7
:1005B000002D00F0C58000F138424FEAB22241F22E
:1005C00000070192C4F600070522002600244FF020
:1005D000010AB84208BF0422009209E00D68043401
:1005E00035FA0AF20AF1010A06F1020600F0A880C3
:1005F000AAF1010C012202FA0CFB15EA0B09EDD05D
:10060000D1F8048008F00305A5F1010EBEF1010F39
:1006100011D887680322CB68B24027EA0202B340B0
:100620001A4382604268C8F3001322EA0B0203FAFD
:100630000CF31A434260032D1CD0C26803238F6859
:10064000B3409A4307FA06F31A43022DC26011D150
:100650006FF0030202EA5C02024404F01C070F235D
:10066000D2F820E003FA07F50B692EEA0505BB4036
:100670002B431362026803234F68B3409A4307F089
:100680000303B3401A4317F4403F0260A6D041F27F
:100690001803C4F202031A6840F2004E42F001024D
:1006A0001A601A68C4F2010E02F001020292029A64
:1006B0002CF003024FF608487244CFF6FF7852F848
:1006C000083004F00C070F25BD4023EA050C019B00
:1006D000009D042B38BF1D4605FA07F747EA0C03B7
:1006E00042F80830DEF808204B6842EA090740F279
:1006F0000C4CDD0258BF22EA0907CEF80870C4F29C
:10070000010CDCF800209D0242EA090758BF22EAEA
:100710000907CCF80070DEF804209D0342EA0907BF
:1007200058BF22EA0907CEF80470DEF80020DB0388
:1007300042EA090758BF22EA0907CEF800704DE7E0
:1007400003B0BDE8F08F00001823002A08BF28235B
:10075000C150704740F20820C2F2000000687047A4
:1007600040F2040040F20821C2F20000C2F200018F
:1007700000780A68104408607047000080B542F2B3
:100780000000C4F20200016841F010010160032082
:1007900000F05EF80F2000F005F800F02BF80020C4
:1007A00080BD0000B0B540F20402C2F2000240F287
:1007B00000011278C2F200014FF47A730968B3FBAA
:1007C000F2F20446B1FBF2F1084600F0E5FB0F2C13
:1007D0004FF001050CD858B94FF0FF3021460022E8
:1007E000002500F025F840F20800C2F20000046085
:1007F0002846B0BD82B041F21800C4F20200016880
:1008000041F001010160016801F0010101910199CC
:10081000416841F080514160406800F08050009094
:10082000009802B07047000080B501F035F980BD36
:1008300070B514460D46064601F03EF9294622469B
:1008400000F066FD0146304601F03EF970BD000043
:1008500080B501F04BF980BD2DE9F04182B004462E
:10086000807841F23006C007C4F202065AD056F82A
:10087000140CC0000ED456F8140C4FF0010840F0D0
:10088000805046F8140C56F8140C00F0805001907B
:10089000019801E04FF0000847F20007C4F200079A
:1008A0003868C00512D4386840F480703860FFF7AB
:1008B00051FF05463868C00508D4FFF74BFF401BC1
:1008C0006428F7D9032002B0BDE8F08156F8100C77
:1008D00010F4407015D0616801F44071884210D066
:1008E00056F8100C40F24042C4F24222012320F498
:1008F000407113600023C007136046F8101C40F0DD
:10090000A28056F8100C616820F440700843B8F1DA
:10091000000F46F8100C05D056F8140C20F080504B
:1009200046F8140C2068C1071BD1810721D4410768
:1009300027D481062DD4810333D441063BD401074B
:1009400041D4C10647D481054DD4010655D4C10513
:100950005DD4C10465D480046BD4002002B0BDE82E
:10096000F0813168A26821F00301114331608107F1
:10097000DDD53168E26821F440311143316041072F
:10098000D7D53168226921F44021114331608106B5
:10099000D1D53168E26921F0100111433160810342
:1009A000CBD556F82C1CA26B21F48001114346F8DC
:1009B0002C1C4106C3D53168226A21F02001114365
:1009C00031600107BDD53168626921F440111143DE
:1009D0003160C106B7D53168A26921F440011143E5
:1009E00031608105B1D556F82C1CE26A21F4000172
:1009F000114346F82C1C0106A9D556F8041C626A5E
:100A000021F4F871114346F8041CC105A1D556F82C
:100A1000041CA26A21F47851114346F8041CC10455
:100A200099D53168226B21F48071114331608004C3
:100A300093D53068616B20F400700843306000206B
:100A400002B0BDE8F081FFF785FE054641F2883728
:100A500056F8100C80073FF554AFFFF77BFE401BA4
:100A6000B8424FF00300F3D9EAE700002DE9F04364
:100A700081B0002878D042F20008C4F2020804468F
:100A8000D8F800000D4600F0070088420CD2D8F8D4
:100A9000000020F007002843C8F80000D8F8000044
:100AA00000F00700A8425FD1206841F204098107E5
:100AB000C4F2020907D5D9F80010A26821F0F001AC
:100AC0001143C9F80010C00745D1D8F8000000F064
:100AD0000700A8420CD9D8F8000020F007002843EE
:100AE000C8F80000D8F8000000F00700A8423BD189
:100AF0002068410707D5D9F80010E26821F4E061C9
:100B00001143C9F80010000708D5D9F80000216981
:100B100020F4605040EAC100C9F8000000F078F805
:100B2000D9F8001041F65C32C1F30311C0F600029F
:100B3000515C40F2000220FA01F140F20800C2F2DA
:100B400000000068C2F200021160FFF72BFE0020D7
:100B500001B0BDE8F0836068022809D0012828D1DF
:100B600059F8041C890307D4012001B0BDE8F083C3
:100B700059F8041C8901F7D5D9F8001021F00301B8
:100B80000843C9F80000FFF7E5FD064641F2883743
:100B9000D9F80000616800F00C00B0EB810F94D030
:100BA000FFF7D8FD801BB842F2D9032001B0BDE8A1
:100BB000F08359F8041C8907D6D5DDE740F2000020
:100BC000C2F200000068704780B5FFF7F7FF41F2FE
:100BD0000401C4F20201096841F66C32C1F302213A
:100BE000C0F60002515CC84080BD000080B5FFF730
:100BF000E5FF41F20401C4F20201096841F66C32DA
:100C0000C1F3C221C0F60002515CC84080BD0000A3
:100C100041F2040CC4F2020CDCF8003003F00C00CA
:100C2000082841F20020C0F27A0018BF7047C3F3D1
:100C300083420AA18A5CDCF82810DB0305D440F665
:100C40000010C0F23D005043704701F00F0107A3B0
:100C5000595CB0FBF1F05043704700BF020304053C
:100C6000060708090A0B0C0D0E0F101001020304F1
:100C700005060708090A0B0C0D0E0F102DE9F041AF
:100C800082B0002800F08F800446007841F2000610
:100C9000C007C4F202064BD0706800F00C000428B4
:100CA00006D13068800343D56068002840D17AE0DF
:100CB000706800F00C00082802D17068C003F0D4FE
:100CC00065686DB1B5F5803F06D03068B5F5A02FE9
:100CD00007D140F480203060306840F4803006E076
:100CE000306820F480303060306820F4802030603C
:100CF000F06AA16820F00F000843F062FFF72AFDB8
:100D0000002D054611D000BF3068800310D4FFF7D6
:100D100021FD401B6428F7D90CE100BFFFF71AFD45
:100D2000401B64284FF003003AD830688003F5D4A4
:100D30002078800718D5706810F00C0F07D0706805
:100D400000F00C00082857D17068C00354D43068F4
:100D5000800702D52069012825D13068616920F01B
:100D6000F80040EAC1003060207800071FD42078E6
:100D7000400732D4E56995B1706800F00C0008288E
:100D800040F08C80012D0ED07068216A00F4803212
:100D90008A4208D1616A00F47010884203D10020B1
:100DA00002B0BDE8F081012002B0BDE8F081A06989
:100DB00000285FD00020C4F242200121C0F8801436
:100DC000FFF7C8FC054600BF706A8007CFD4FFF765
:100DD000C1FC401B0228F7D9ACE0F069C00020D468
:100DE000F0694FF0010840F08050F061F06900F0C8
:100DF00080500190019816E02069002840F2000020
:100E0000C4F242206CD001210160FFF7A3FC05462B
:100E100030688007A1D4FFF79DFC401B0228F7D95A
:100E200088E04FF0000847F20007C4F20007386876
:100E3000C00510D4386840F480703860FFF78AFC31
:100E4000054600BF3868C00505D4FFF783FC401B8A
:100E50006428F7D96EE0E568002D53D0012D05D048
:100E6000306A052D4FD140F004003062306A40F006
:100E700001004EE00020C4F242200021C0F880149E
:100E8000FFF768FC054600BF706A80077FF56FAF0B
:100E9000FFF760FC401B0228F6D94BE00027C4F2A4
:100EA000422700203866FFF755FC022D05460BD17E
:100EB0003068800156D5FFF74DFC401B02284FF0EB
:100EC0000300F5D96CE700BF306880017FF567AF9C
:100ED000FFF740FC401B02284FF00300F4D95FE706
:100EE00000210160FFF736FC054600BF306880072F
:100EF0007FF53AAFFFF72EFC401B02284FF00300AE
:100F0000F4D94DE7306A20F001003062306A20F0F9
:100F100004003062FFF71EFC002D054641F28837C1
:100F200014D000BF306A800713D4FFF713FC401BB6
:100F3000B842F7D9032002B0BDE8F081FFF70AFC00
:100F4000401BB8424FF003003FF62AAF306A8007DB
:100F5000F4D4B8F1000F3FF40DAFF06920F08050E9
:100F6000F06107E77068D4E9082120F474100843A1
:100F70001043706001203866FFF7ECFB044600BFA9
:100F8000306880013FF50BAFFFF7E4FB001B022840
:100F90004FF00300F4D903E780B500F0F1F980BD0C
:100FA000704700007047000010B5C8B10446C06F1C
:100FB00028B9002084F87800204600F025F8242085
:100FC000E0672068616A026822F00102026011B1E4
:100FD000204600F02FFA204600F0B4FB012801D192
:100FE000012010BD2068416821F490414160816872
:100FF00021F02A018160016841F001010160204671
:1010000000F08CFA10BD000070B586B00026CDE966
:101010000466CDE902660446006843F60001C4F2A6
:1010200001018842019601D006B070BD41F2140062
:10103000C4F20200416841F480414160416801F41A
:10104000804100910099016841F40031016000681D
:1010500001A900F40030009000984FF4C0600190A6
:101060000220CDE9020603200490072005904FF0EE
:101070009040FFF799FA40F23C155820C2F2000563
:10108000C4F20200802120224FF44053C5E900063B
:101090002846C5E90261C5E90466C5E90623FFF7EC
:1010A0000BFA002818BFFFF7AFF965676C6206B04E
:1010B00070BD000080B5D0F88030202B1CBF02200E
:1010C00080BD00294FF0010318BF002A01D1184646
:1010D00080BD0023036603685B681B020CD500BF5C
:1010E000036853E800CFD0F800E04CF080634EE88E
:1010F000003CBCF1000FF3D100F01AFC0346184687
:1011000080BD0000006843F60001C4F2010188427E
:1011100018BF704740F23910C2F20000007898B151
:1011200040F23813C2F2000340F23A1C1978C2F2BE
:10113000000C00228CF800204A1C1A7040F2700249
:10114000C2F200025054704740F23A10C2F200005E
:101150000121017040F23810C2F20000002101703C
:1011600070470000704700002DE9F04182B004464E
:10117000C06F20283ED10E4600294FF0010049D013
:101180001746002A46D04FF0000821201D46C4F81B
:101190008480E067FFF7DEFAA4F85070A4F852707C
:1011A000A1680746B1F5805F0FD12069002814BF00
:1011B0003046B046064608E016F8010B216808855F
:1011C000B4F852000138A4F85200B4F85200A8B1A3
:1011D0002046802100223B46009500F0F9FBE0B953
:1011E000002EE9D138F8020B21686FF35F200885E3
:1011F0000026E5E7022002B0BDE8F081204640214C
:1012000000223B46009500F0E3FB2021E167002827
:1012100018BF032002B0BDE8F0812020E067032062
:1012200002B0BDE8F0810000FEE7000080B582B0AA
:1012300041F21400C4F202000168002241F00101F1
:1012400001600068002100F00100019001980F206A
:10125000FFF7EEFA0F20FFF7E7FA02B080BD0000BB
:1012600070B586B0002541F214000595CDE903550F
:10127000CDE90155C4F20200016840F6000441F4D2
:10128000002101600168C4F6000401F4002100910E
:1012900000990168002241F40031016000684FF4B8
:1012A000407100F400300090009820464FF44076E2
:1012B000FFF74AFA0120029002200196CDE90305CA
:1012C00001A92046FFF770F906B070BD80B540F265
:1012D000801043F60001C2F20000C4F201010023B5
:1012E0004FF00C0C4FF4E13280E80E00C0E90333FC
:1012F000C0E905C3C0E907334362FFF755FE002884
:1013000008BF80BDFFF780F8FEE70000FEE70000A1
:1013100000F0070080F00703042B28BF04234FF0E0
:10132000FF3C03380CFA03F338BF00209943814097
:101330000CFA00F022EA00000843704770470000F2
:10134000B0B540F23A15C2F200052878012818BF5E
:10135000B0BD40F2700440F28010C2F20004C2F24C
:1013600000002146C8226423FFF7FEFE2046C82164
:10137000FEF77AFF00202870B0BD00007047000023
:10138000B0B501380024B4EB106F1CBF0120B0BD14
:101390004EF21005CEF2000568604FF0FF300F21CD
:1013A00000F092FB0720AC6028602046B0BD000032
:1013B00080B5FFF7D5F980BDB0B59EB014AC20461E
:1013C0002821FEF751FF002568463C211395CDE901
:1013D0001155CDE90F55FEF747FF0220149001206B
:1013E00018901020199020461B95FFF747FCA8B9CC
:1013F0000F20CDE90F050FA80021CDE91155139558
:10140000FFF734FB50B9012000900020029068469D
:10141000FFF722FA002804BF1EB0B0BDFEF7F4FFAC
:101420004EF68850CEF20000016841F47001016070
:101430007047000080B5416A0A070CD4CA0715D16D
:101440008A071ED44A0727D4CA0630D48A0639D45C
:101450004A0657D541E00268D0F834C0536823F4F7
:10146000004343EA0C035360CA07E9D00268D0F88E
:1014700028C0536823F4003343EA0C0353608A07FF
:10148000E0D50268D0F82CC0536823F4803343EAD7
:101490000C0353604A07D7D50268D0F830C05368B0
:1014A00023F4802343EA0C035360CA06CED50268B6
:1014B000D0F838C0936823F4805343EA0C03936058
:1014C0008A06C5D50268D0F83CC0936823F400535F
:1014D00043EA0C0393604A0614D50268D0F840C072
:1014E0005368BCF5801F23F4801343EA0C03536058
:1014F00008D1D2F804C0D0F844E02CF4C00343EA89
:101500000E035360090658BF80BD0168806C4A68AD
:1015100022F400221043486080BD0000B0B582B0C4
:1015200004460020C4F88400FFF714F9216805463A
:10153000096809071AD56FF07E4C20464FF4001158
:1015400000222B46CDF800C000F042FA70B100BF77
:10155000206850E8000F216820F0800041E8000278
:10156000002AF5D12020E06703202FE020680068E2
:10157000400724D56FF07E4C20464FF480010022B6
:101580002B46CDF800C000F023FAC0B1206850E827
:10159000000F216820F4907041E80002002AF5D184
:1015A000206850E8020F216820F0010041E80202A3
:1015B000002AF5D12020C4F88000032006E0202076
:1015C000E067C4F88000002020666066002184F88F
:1015D000781002B0B0BD0000B0B5446A2068E16F79
:1015E000D4F880508068212908D110F0800005D0FF
:1015F0000020A4F85200204600F096F82068222D22
:10160000806808D110F0400005D00020A4F85A00EE
:10161000204600F05FF8D4F8840040F01000C4F8D1
:1016200084002046FFF7BEFCB0BD000080B5816994
:10163000406A202930D00021A0F85A10016851E8F2
:10164000001F026821F4807142E80013002BF5D1DD
:10165000016851E8021F026821F0010142E802130B
:10166000002BF5D1016851E8021F026821F040010A
:1016700042E80213002BF5D12021C0F88010016E42
:10168000012909D1016851E8001F026821F0100109
:1016900042E80013002BF5D100214166016E0129BB
:1016A00004D1B0F85810FFF77BFC80BDFFF72AFD8E
:1016B00080BD000080B5406A01214166016E0129AC
:1016C00005D1B0F858104908FFF76AFC80BDFFF754
:1016D00049FD80BD016851E8001F026821F4907146
:1016E00042E80013002BF5D1016851E8021F02689F
:1016F00021F0010142E80213002BF5D1016E01290E
:101700000AD100BF016851E8001F026821F01001F2
:1017100042E80013002BF5D12021C0F880100021F1
:101720000166816670470000016851E8001F026889
:1017300021F0C00142E80013002BF5D12021C16740
:1017400070470000B0B5044602688068D4E90331F0
:1017500065690143D4F81CC02943156849F20C603F
:1017600041EA0C0125EA000008431060506820F4AB
:10177000405018435060A069216A9368084323F4DD
:1017800030610843906044F6FF30C4F200008242AA
:101790004FF0100118DD44F60040C4F20000824210
:1017A00025D045F20000C4F20000824226D043F664
:1017B0000000C4F20100824232D141F23000C4F292
:1017C0000200016856A227E044F20040C4F2000083
:1017D00082421AD044F60000C4F2000082421FD1B7
:1017E00041F23000C4F202000068810C13E041F2C3
:1017F0003000C4F202000068010D0CE041F230003C
:10180000C4F202000068810D05E041F23000C4F22C
:1018100002000068010C3EA201F0030052F8201003
:1018200041F20020BCF5004FC0F27A000ED1082929
:1018300020D80025DFE801F00519251E221E1E1EF6
:101840003D000025FFF7C0F9E0B955E008293BD875
:101850000025DFE801F0053440393D3939395600BB
:101860000025FFF7B1F9B8BB46E00025FFF7BEF948
:1018700040B941E00020012520B93DE00025FFF7F7
:10188000C7F9C8B361684A0802EB4000B0FBF1F049
:101890004FF6EF72A0F11001914208D84FF6F071A7
:1018A0000140C0F3420022680844D06024E00125D2
:1018B00022E04FF4004000250028E3D11CE0002581
:1018C000FFF794F940B917E00020012520B913E093
:1018D0000025FFF79DF978B161684FF6EF7200EBD4
:1018E0005100B0FBF1F0A0F11001914203D8216842
:1018F00080B2C86000E0012500212846A166E166AB
:10190000B0BD4FF4004000250028E5D1F4E700BF4A
:1019100000000000040000000800000002000000B9
:1019200001000000040000000800000002000000A8
:1019300010B5416500210446A0F85820C0F8841075
:101940002220C4F88000606F00B3134641F22D627C
:10195000C0F600024163216841F2B56C41F2D95EE4
:101960008262626DC0F6000CC0F6000E2431C0F831
:101970002CC0C0F830E0FEF7CBFD38B11020C4F821
:1019800084002020C4F88000012010BD206948B1E7
:10199000206850E8000F216840F4807041E80002A0
:1019A000002AF5D1206850E8020F216840F00100BC
:1019B00041E80202002AF5D1206850E8020F2168B0
:1019C00040F0400041E80202002AF5D1002010BD9D
:1019D0002DE9F04381B004460068C0690840401A10
:1019E000B0FA80F0400990423DD1DDF820801546E4
:1019F0000E46994608F1010709E000BF2068C0695A
:101A00003040801BB0FA80F04009A8422FD1002F4F
:101A1000F4D0FEF79FFE0146B8F1000F4FF003002F
:101A200026D0A1EB0901414522D820680168490769
:101A3000E4D5402EE2D0802EE0D0C16909071AD447
:101A4000C1690905DAD54FF4006101622046FFF74C
:101A500041FE2020C4F88400002084F87800032090
:101A600001B0BDE8F083002001B0BDE8F0830020A4
:101A700001B0BDE8F083082505622046FFF72AFE85
:101A80000020C4F8845084F87800012001B0BDE83B
:101A9000F0830000FEE70000002848BF704700F018
:101AA0001F01012202FA01F14EF200124009CEF2AA
:101AB000000242F8201070474EF60C50CEF20000A3
:101AC0000068C0F3022070474EF6145300F00F0276
:101AD000CEF2000309011A4400F16043B0F1FF3F68
:101AE000C8BF03F564421170704700004EF60C51F8
:101AF000CEF200010A684FF6FF031A4060F30A2293
:101B000042F0806040F0FD7008607047FEF736FEDE
:101B1000FFF752FCFFF7A4FBFFF788FBFFF7D6FBAC
:101B200040F2801040F23911C2F20000C2F200010E
:101B30000122FFF7BFFA00BFFEF7FAFBFFF700FC38
:101B4000FAE7F1EE100A4FF6FF71C0F2C03120EA59
:101B5000010040F04070E1EE100A70470000000004
:101B6000000000000102030406070809000000004D
:101B700001020304981B0008000000201000000070
:101B8000C4010008A81B0008100000200008000085
:101B9000E00100080000000000127A0001000000CF
:081BA00010000000000000002D
:040000050800018965
:00000001FF
